:100000000C9440000C9468000C9468000C946800F8
:100010000C9468000C9468000C9468000C946800C0
:100020000C9468000C94A6050C9468000C9468006D
:100030000C9468000C9468000C9468000C946800A0
:100040000C9468000C9468000C9468000C94680090
:100050000C9468000C9468000C9468000C94680080
:100060000C9468000C9468000C9468000C94680070
:100070000C9468000C9468000C94680030103410E4
:1000800011241FBECFEFD8E0DEBFCDBF12E0A0E04D
:10009000B1E0E2EFF0E202C005900D92A036B107A8
:1000A000D9F722E0A0E6B2E001C01D92A336B20764
:1000B000E1F710E0CFE3D0E004C02197FE010E94F9
:1000C0006610CE33D107C9F70E94EC0F0C946C1068
:1000D0000C94000090E0981301C00895EFE4F3EC55
:1000E0003197F1F700C000009F5FF5CFCF93DF930A
:1000F000EC010E94A40F19821A821B821C821D82AD
:10010000CE010696DF91CF910C94180C1F93CF93DC
:10011000DF93D82FC92F0E94B90F182F8D2F9C2F36
:100120000E94B90F912FDF91CF911F910895CF9227
:10013000DF92EF92FF920F931F93CF93DF937C0197
:10014000EB018A01CB0107966C01C7010E94B90F30
:100150008993C7010E94B90FF80181938F01CC15D3
:10016000DD0599F7DF91CF911F910F91FF90EF90EF
:10017000DF90CF900895CF93DF93FC01DA0181E007
:10018000EB019981943609F080E0818312968C917D
:100190001297828313968C911397838314968C9174
:1001A0001497848315968C918583DF91CF91089560
:1001B0000F931F93CF93DF93CDB7DEB72E970FB674
:1001C000F894DEBF0FBECDBF8C01FC01319685E0F7
:1001D000DF011D928A95E9F7C8010E948600AE01F1
:1001E0004F5F5F4FBE01685F7F4FC8010E9497005D
:1001F00081E09985943609F080E0F80181838B8154
:1002000082838C8183838D8184838E81858381E049
:100210002E960FB6F894DEBF0FBECDBFDF91CF9103
:100220001F910F9108950F931F93CF93DF93EC01CC
:100230008C010A5F1F4F498160E070E0C8010E9495
:10024000ED0C8FE19EE40197F1F700C000004A81B8
:1002500061E070E0C8010E94ED0C8FE19EE401971F
:10026000F1F700C000004B8162E070E0C8010E941D
:10027000ED0C8FE19EE40197F1F700C000004C8186
:1002800063E070E0C8010E94ED0C8FE19EE40197ED
:10029000F1F700C000004D8164E070E0C8010E94E9
:1002A000ED0C8FE19EE40197F1F700C00000DF91B3
:1002B000CF911F910F9108950F931F93CF93DF93C9
:1002C00000D000D00F92CDB7DEB78C010E94D800CD
:1002D000C8010E94130185E0F8013196DE011196F4
:1002E00001900D928A95E1F729813A814B815C81D9
:1002F0006D8170E080E090E00F900F900F900F9074
:100300000F90DF91CF911F910F910895EF92FF927F
:100310000F931F93CF93DF930F92CDB7DEB78C016E
:1003200019827C0186E0E80EF11CAE014F5F5F4F41
:1003300060E070E0C7010E94270C81E09981911173
:1003400001C080E0F8018183A8014E5F5F4F61E04A
:1003500070E0C7010E94270CA8014D5F5F4F62E06B
:1003600070E0C7010E94270CA8014C5F5F4F63E05B
:1003700070E0C7010E94270CA8014B5F5F4F64E04B
:1003800070E0C7010E94270C0F90DF91CF911F9161
:100390000F91FF90EF9008950F931F93CF93DF93EA
:1003A0008B01EC012696FB01408160E170E0CE01FB
:1003B0000E94ED0C8FE19EE40197F1F700C0000070
:1003C000F801418161E170E0CE010E94ED0C8FE106
:1003D0009EE40197F1F700C00000F801428162E15C
:1003E00070E0CE010E94ED0C8FE19EE40197F1F7E1
:1003F00000C00000F801438163E170E0CE010E947B
:10040000ED0C8FE19EE40197F1F700C00000F801C8
:10041000448164E170E0CE010E94ED0C8FE19EE426
:100420000197F1F700C00000F801458165E170E037
:10043000CE010E94ED0C8FE19EE40197F1F700C020
:100440000000DF91CF911F910F910895EF92FF92DD
:100450000F931F93CF93DF93CDB7DEB72C970FB6D3
:10046000F894DEBF0FBECDBF7E0127E0E20EF11C87
:1004700026E0F70111922A95E9F78C010A5F1F4FD8
:10048000A70160E170E0C8010E94270CAE01485F3F
:100490005F4F61E170E0C8010E94270CAE01475F29
:1004A0005F4F62E170E0C8010E94270CAE01465F19
:1004B0005F4F63E170E0C8010E94270CAE01455F09
:1004C0005F4F64E170E0C8010E94270CAE01445FF9
:1004D0005F4F65E170E0C8010E94270C86E0F701DC
:1004E000DE01119601900D928A95E1F729813A81FA
:1004F0004B815C816D817E8180E090E02C960FB60F
:10050000F894DEBF0FBECDBFDF91CF911F910F9149
:10051000FF90EF900895CF93DF93EC010E94BD0D03
:10052000CE0105960E94300FCE0108960E94A00EC3
:10053000CE010D960E94D60ECE0140960E94760006
:10054000CE0147960E9424041DA61EA61FA618AA27
:1005500019AA1AAA1BAA1CAA1DAA1EAA1FAA19AE6A
:1005600018AE1AAE1BAE1CAEDF91CF91089561504C
:1005700081E0623008F080E00895FC0193AD85A52C
:10058000811529F081E0911509F080E0089581E05E
:100590009130FACF1F93CF93DF93EC01162F0E9477
:1005A000BD02811529F01AABDF91CF911F910895FB
:1005B0001BABFACFFC0185A5811571F0423051F0DB
:1005C00020F4411105C064AB0895433051F0089503
:1005D00065AB089566AB08954230D1F320F4411124
:1005E000F9CF67AB0895433071F30895EF92FF920E
:1005F0000F931F93CF93DF93EC018B0188AD99ADDF
:100600008330910509F474C084F48130910509F1B7
:100610008230910509F447C0892B99F0DF91CF9181
:100620001F910F91FF90EF9008958430910509F488
:1006300078C0069799F7CB010E940B0A87E090E0FB
:1006400005C0CB010E94670881E090E099AF88AFB8
:10065000E5CFCB010E947C06C8010E943D068115B2
:10066000E9F2C8010E942607CE010E943A0E2FEF40
:1006700089E698E1215080409040E1F700C00000F9
:1006800084E6E82EF12CC8010E947C068FE59AEEE4
:100690000197F1F700C0000091E0E91AF10899F71D
:1006A00082E090E0D3CFCB010E947C06C8010E947B
:1006B00080089CAD980F9CAFC8010E943D06811533
:1006C00009F4ACCF6CADCE010E94CA021CAE8BAD5A
:1006D0008F5F8BAF813031F4C8010E945F0783E0E8
:1006E00090E0B4CFC8010E94260786E090E0AECF2C
:1006F000CB010E949206C8010E944806811539F07C
:100700008AAD843020F484E090E099AF88AFC801CE
:100710000E943D06811509F481CFC8010E94260779
:10072000BFCFCB010E94DC088AAD8150823060F4DB
:10073000C8010E948A09682F1AAD412FCE010E947C
:10074000DA021F5F1AAFCBCFC8010E945209F3CF64
:100750006F927F928F929F92AF92BF92CF92DF92D1
:10076000EF92FF920F931F93CF93DF93CDB7DEB736
:10077000A7970FB6F894DEBF0FBECDBF5C013C015A
:1007800020E1620E711CC3010E94860185E0F50123
:100790007196DE01939601900D928A95E1F785E0BE
:1007A000FE01B396DE0111964D0101900D928A95DE
:1007B000E1F785E0F401D5019D9601900D928A95AF
:1007C000E1F76501B7E1CB0ED11C7501EDE0EE0E4E
:1007D000F11C8501085F1F4F9501235D3F4FA50167
:1007E0004B5F5F4FB501C4010E94B805FE017D96C5
:1007F00086E0DF011D928A95E9F7182D092D4F013A
:10080000F50180AD91AD0797C9F4B401C3010E9411
:10081000CC01A7960FB6F894DEBF0FBECDBFDF9117
:10082000CF911F910F91FF90EF90DF90CF90BF90ED
:10083000AF909F908F907F906F900895612F702F51
:10084000C5010E94F602DCCF0F93CF93DF93EC013A
:1008500003E022E048E250E067E270E00E94740B9F
:10086000CE0107960E947600FE013E9685E0DF01EC
:100870001D928A95E9F7CE014396DF91CF910F91B2
:100880000C94300F1F93CF93DF93182FD92FC8E00C
:100890006DE7812F9D2F0E94DC0BCA95C9F7DF9170
:1008A000CF911F910895CF93DF93EC0107960E949B
:1008B0005C012E873F87488B598B6A8BDF91CF91E4
:1008C0000895EF92FF920F931F93CF93DF93EC0164
:1008D0008C01015F1F4F7C0122E1E20EF11C639647
:1008E000F80161918F01CE010E943A0FFFE72AE1E2
:1008F00086E0F15020408040E1F700C00000CE01CA
:100900000E944C0F9FE3EDE0F3E09150E040F04097
:10091000E1F700C000000E151F0511F7DF91CF9120
:100920001F910F91FF90EF9008951F93CF93DF9346
:10093000EC0110E08A89181720F0DF91CF911F9108
:100940000895CE010E94B70B2FEF84E39CE0215065
:1009500080409040E1F700C00000CE010E94900B63
:100960002FEF84E39CE0215080409040E1F700C0ED
:1009700000001F5FDFCFCF93DF93EC018E858115E1
:1009800089F0CE010E94990B2FEF83ED90E3215067
:1009900080409040E1F700C00000CE01DF91CF9190
:1009A0000C94900BCE010E94A80BEECFCF93DF9357
:1009B000D82FC92F0E9461042FEF83ED90E32150BF
:1009C00080409040E1F700C000008D2F9C2F0E94D6
:1009D000BB042FEF83ED90E3215080409040E1F77E
:1009E00000C000008D2F9C2FDF91CF910C949504B7
:1009F000CF93DF93D82FC92F0E9442048D2F9C2FB5
:100A00000E9453048D2F9C2FDF91CF910C94D6041C
:100A10000F93CF93DF93EC0103E022E048E250E034
:100A200067E270E00E94740B22E049E250E06AE263
:100A300070E0CE010796DF91CF910F910C94490B96
:100A40000F931F93CF93DF93C8ECD0E08C01095F25
:100A50001F4FC8010E945C0B811108C0EFE1FEE44A
:100A60003197F1F700C00000219799F7DF91CF91FE
:100A70001F910F9108951F93CF93DF93D82FC92F04
:100A80000E94990B8D2F9C2F0E942005182F8D2FCF
:100A90009C2F111539F00E94900B812FDF91CF917F
:100AA0001F9108950E94900B2FEF89E698E1215045
:100AB00080409040E1F700C00000EFCF1F93CF933C
:100AC000DF93D82FC92F0E94A80B8D2F9C2F0E9437
:100AD0002005182F8D2F9C2F111539F00E94900B97
:100AE000812FDF91CF911F9108950E94900B2FEFDE
:100AF00089E698E1215080409040E1F700C0000075
:100B0000EFCFCF93DF93D82FC92F2FEF83ED90E353
:100B1000215080409040E1F700C000008D2F9C2FB5
:100B20000E943B0581110FC08FE19EE40197F1F710
:100B300000C000008D2F9C2F0E945E0590E0019662
:100B4000DF91CF91089580E090E0FACF8F938FB737
:100B50008F939F9380916002909161020196909390
:100B60006102809360029F918F918FBF8F91189542
:100B70008F929F92AF92BF92CF92DF92EF92FF92AD
:100B80000F931F93CF93DF93EC01490158017983B1
:100B900068835B834A833D832C831F830E83F9869E
:100BA000E886DB86CA8603E022E048E250E067E29E
:100BB00070E00C960E94740BF50184819081F40121
:100BC00020812115C9F09B8BF501318124E69CE839
:100BD0003C8B2D8B9E8B8F8B198E1A8E1B8EDF91EB
:100BE000CF911F910F91FF90EF90DF90CF90BF902A
:100BF000AF909F908F9008958B8BF5013381892F53
:100C00002EE69AE5E5CF0F931F93CF93DF938C01E8
:100C1000C0E0D0E0D8011496ED91FC911597EC0F4F
:100C2000FD1F618112968D919C910E943A0FBFE742
:100C3000EAE1F6E0B150E040F040E1F700C000002A
:100C4000D80112968D919C910E944C0FBFE3EDE06C
:100C5000F3E0B150E040F040E1F700C00000219621
:100C6000C330D105B9F6DF91CF911F910F9108954F
:100C7000FC01828593850C944204FC018681978156
:100C80000C94B90EFC016489868197810C94B20E94
:100C9000CF93DF93EC016F898E819F810E94B20E0A
:100CA0009B8D81110DC0911113C081E08B8FCE01FE
:100CB00048960E94860F8B8D81110AC080E019C072
:100CC0009115E1F3CE0148960E949C0F1B8EF6CF42
:100CD0008091600290916102803D974078F3CE014F
:100CE00048960E949C0F1B8E888199810E943A0E23
:100CF00081E0DF91CF910895CF93DF93EC016B8971
:100D00008E819F810E94B20E382F888199816D89D2
:100D10002E89422F311511F0462F622FDF91CF918E
:100D20000C94900ECF93DF93EC016F898E819F819D
:100D30000E94B20E382F888199816E892D89422FA9
:100D4000311511F0462F622F0E94900E2FEF80E791
:100D500092E0215080409040E1F700C0000088817F
:100D600099810E943A0E8FE59AEE0197F1F700C043
:100D70000000DF91CF910895FC01A481B5818C9191
:100D8000811521F0808191810C946B0E808191817D
:100D90000C94460EFC01A481B5818C91811521F043
:100DA000808191810C94460E808191810C946B0E10
:100DB000CF93DF93EC0188819981EC81FD812081C3
:100DC00048E768E72115C1F00E942A0E2FEF80E75F
:100DD00092E0215080409040E1F700C000008881FF
:100DE00099810E943A0E8FE59AEE0197F1F700C0C3
:100DF0000000DF91CF9108950E94190EE7CFCF93A5
:100E0000DF93EC0188819981EC81FD81208148E7A5
:100E100068E72115C1F00E94190E2FEF80E792E0DC
:100E2000215080409040E1F700C000008881998106
:100E30000E943A0E8FE59AEE0197F1F700C000008C
:100E4000DF91CF9108950E942A0EE7CFCF93DF93D1
:100E5000EC0140E560E5888199810E94900E2FEFBA
:100E60008FE097E2215080409040E1F700C0000001
:100E7000CE010E94D8068FE59AEE0197F1F700C0E7
:100E800000006B898E819F810E94B20E811581F3D3
:100E90006C898E819F810E94B20E8111E9CF888179
:100EA00099810E943A0E9FEF24E38CE091502040FC
:100EB0008040E1F700C00000DF91CF910895CF930B
:100EC000DF93EC0140E560E5888199810E94900EF6
:100ED0002FEF8FE097E2215080409040E1F700C073
:100EE0000000CE010E94D8068FE59AEE0197F1F737
:100EF00000C000006F898E819F810E94B20E811513
:100F000081F3CE010E94D8068FE59AEE0197F1F7A2
:100F100000C000006F898E819F810E94B20E8111F6
:100F2000F0CFCE010E94D8068FE59AEE0197F1F737
:100F300000C000006F898E819F810E94B20E8115D2
:100F400081F3888199810E943A0E9FEF24E38CE01F
:100F5000915020408040E1F700C00000DF91CF9128
:100F60000895EF92FF920F931F93CF93DF93EC01BD
:100F7000EC81FD81048180818115B9F086E0801BC0
:100F8000082FE12CF12C0150110BE016F10694F022
:100F9000CE010E94BC0688819981DF91CF911F917B
:100FA0000F91FF90EF900C943A0E0F5FEACFCE01B5
:100FB0000E947C066C898E819F810E94B20E8115F1
:100FC000B1F36C898E819F810E94B20E811104C0A1
:100FD0008FEFE81AF80AD9CFCE010E947C06F1CF34
:100FE000CF93DF93EC0164E6888199810E94E10D43
:100FF0008E819F810E94B90E8115A9F364E68881D4
:1010000099810E94030E2FEF89E698E121508040DC
:101010009040E1F700C0000088819981DF91CF9175
:101020000C943A0ECF93DF93EC016DE28A819B81A1
:101030000E943A0F2FEF89E698E1215080409040BE
:10104000E1F700C000002FE788E391E021508040E5
:101050009040E1F700C000008A819B81DF91CF9131
:101060000C944C0FCF93DF93EC01CE010E94FF064E
:101070006F898E819F810E94B20E8115B1F38881A4
:1010800099810E943A0E2FEF89E698E12150804025
:101090009040E1F700C00000DF91CF910895CF9319
:1010A000DF93EC010E94CA06CE010E94CA06CE015F
:1010B0000E943D06811529F0CE01DF91CF910C945D
:1010C0005F0764E6888199810E94E10DF0CFCF939C
:1010D000DF93EC0164E6888199810E94030E2FEF73
:1010E00080E990E5215080409040E1F700C0000089
:1010F000CE010E94CA06CE01DF91CF910C947C06EE
:10110000CF93DF93EC018E819F81FC0161810E946E
:10111000B20E81110EC08E819F81FC0163810E94FD
:10112000B20E811130C0CE010C960E94900B80E06F
:1011300040C08E819F81FC0163810E94B20E8111AB
:10114000EACFFFEF20E782E0F15020408040E1F756
:1011500000C000008E819F81FC0161810E94B20E5F
:1011600081111AC08E819F81FC0163810E94B20EA1
:101170008115E9F28E819F81FC0161810E94B20E8E
:10118000811591F0D4CF8E819F81FC0161810E94F5
:10119000B20E8111C8CFD5CF8E819F81FC016381B2
:1011A0000E94B20E8111DECFCE010C960E94A80BD8
:1011B00081E0DF91CF9108951F93CF93DF93EC01EE
:1011C00040E565E5888199810E94900E2FEF83ECC0
:1011D00099E0215080409040E1F700C000008881F4
:1011E00099810E943A0E2FEF89EF90E021508040C4
:1011F0009040E1F700C000006F898E819F810E94BE
:10120000B20E811107C06C898E819F810E94B20E3F
:101210008115B1F244E665E5888199810E94900EBE
:101220002FEF89E698E1215080409040E1F700C01F
:101230000000888199810E943A0ECE010E94D80652
:101240008FE59AEE0197F1F700C000006F898E815B
:101250009F810E94B20E8111F0CF1AE0CE010E9450
:10126000D8061A95D9F764E6888199810E94030E01
:101270009FEF29E688E1915020408040E1F700C0CF
:101280000000CE010E94D8066F898E819F810E9446
:10129000B20E8115B1F388819981DF91CF911F91B1
:1012A0000C943A0E1F93CF93DF93EC0110E06B89FF
:1012B0008E819F810E94B20E811541F0CE010E9465
:1012C0003208812FDF91CF911F910895CE010E94A6
:1012D000FF0645E06CE1888599850E94E90E81153D
:1012E00031F3CE010E9403062FEF83ED90E32150EE
:1012F00080409040E1F700C0000045E06CE1888547
:1013000099850E94E90E8111ECCFCE010E9438062A
:101310001F5FCDCFBF92CF92DF92EF92FF920F93DC
:101320001F93CF93DF93EC010E94CA0688819981B5
:101330000E943A0E2FEF84E39CE0215080409040C1
:10134000E1F700C000008CE8C82ED12CB12C00E0E1
:10135000FE013C967F0164E6888199810E94E10D3F
:101360008E819F81FC0160810E94B20E182F8E81B8
:101370009F81FC0161810E94B20E180F8E819F81B6
:10138000FC0162810E94B20E180F8E819F81FC01C8
:1013900063810E94B20E180F8E819F81FC016481CF
:1013A0000E94B20E810F1B2DBB24B394833060F5D5
:1013B000B12CC7010E94900B8FE493EC0197F1F7D9
:1013C00000C0000091E0C91AD10829F688819981EE
:1013D0000E943A0EC7010E94900BEFEFF9E628E158
:1013E000E150F0402040E1F700C00000CE010E9433
:1013F0004F08802FDF91CF911F910F91FF90EF90B9
:10140000DF90CF90BF900895C7010E94A80B1111E3
:10141000D3CF0F5FD1CFCF93DF93D82FC92F0E94A7
:10142000B1078D2F9C2F0E94F0078D2F9C2FDF91ED
:10143000CF910C9412080F93CF93DF93EC0103E04C
:1014400022E048E250E067E270E00E94740BCE01B7
:1014500007960E94A40FCE0108960E9476002F9650
:1014600086E0FE0111928A95E9F7DF91CF910F9105
:1014700008951F93CF93DF93182FD92FC8E06DE7FE
:10148000812F9D2F0E94F50BCA95C9F7DF91CF914F
:101490001F910895CF93DF93EC0108960E942602D6
:1014A0002F87388B498B5A8B6B8B7C8BDF91CF913D
:1014B00008950F931F93CF93DF93EB018C01095F86
:1014C0001F4F6991611105C0DF91CF911F910F915D
:1014D0000895C8010E94B20FF4CF0F931F93CF93CA
:1014E000C62F8C01095F1F4F6A3048F0862F6AE0D3
:1014F0000E94381060E3680FC8010E94B20F8C2F61
:101500006AE00E94381060E3690FC801CF911F9113
:101510000F910C94B20FCF93DF93EC0127966DE0FF
:10152000CE010E94B20F6AE0CE01DF91CF910C9400
:10153000B20FDF92EF92FF920F931F93CF93DF933F
:10154000D82FC92FF42ED22EE32E0E94590A66E21C
:1015500071E0F114B1F06AE271E08D2F9C2F0E94CE
:10156000590A6F2D8D2F9C2F0E946D0A67E371E041
:101570008D2F9C2F0E94590A81E06D2D7E2DF8122F
:10158000B8018D2F9C2F0E94590A8D2F9C2FDF911F
:10159000CF911F910F91FF90EF90DF900C948B0AE9
:1015A0000F931F93CF93DF93EC012FEF82E597E02A
:1015B000215080409040E1F700C0000069E371E0F5
:1015C000CE010E94590ACE010E948B0ACE010E94D0
:1015D0008B0A6FE471E0CE010E94590ACE010E948D
:1015E0008B0A64E771E0CE010E94590ACE010E9485
:1015F0008B0ACE010E948B0A01EB11E02BEB31E04C
:10160000498964EC71E0CE010E94990A06ED11E06F
:101610002DED31E04A8963EE71E0CE010E94990A16
:101620002DED31E04B8965EF71E0CE010E94990A02
:1016300001EB11E02BEB31E04C8967E072E0CE0169
:101640000E94990A09E112E02BE232E04F856BE338
:1016500072E0CE010E94990A2BE232E048896DE4E3
:1016600072E0CE010E94990ADF91CF911F910F91F4
:101670000895CF93DF93D82FC92F0E94390A8D2F59
:101680009C2F0E944A0A8D2F9C2FDF91CF910C94A2
:10169000D00AFC01DB0181E090E0BC0102C0660FD2
:1016A000771F2A95E2F79B0162838C91209528236E
:1016B0002C93518340830895FC01A081B1818C91CA
:1016C00092818923811571F08FE19EE40197F1F7F2
:1016D00000C00000A081B1819C918281982381E0AB
:1016E000911101C080E008950F93FC01DB0181E0BE
:1016F00090E0BC0102C0660F771F2A95E2F7648371
:1017000001C0880F0A95EAF78583862B8683538369
:101710004283B183A0839C91892B8C930F91089570
:10172000FC01A281B3819C918681809589238C9351
:101730000895FC01A281B3819C91868180958923C3
:101740008C93A281B3818C919481892B8C93089581
:10175000FC01A281B3819C918681809589238C9321
:10176000A281B3818C919581892B8C930895CF931D
:10177000DF93D82FC92F0E94990B8FEC97E0019728
:10178000F1F700C000008D2F9C2F0E94A80B8FEC5A
:1017900097E00197F1F700C00000DF91CF91089525
:1017A00080E0861301C00895EFECF7E03197F1F780
:1017B00000C000008F5FF5CF1F93CF93DF93D82F2A
:1017C000C92F162F0E94990B612F8D2F9C2F0E94DD
:1017D000D00B8D2F9C2F0E94900B612F8D2F9C2F53
:1017E000DF91CF911F910C94D00B1F93CF93DF9378
:1017F000D82FC92F162F0E94A80B612F8D2F9C2F39
:101800000E94D00B8D2F9C2F0E94900B612F8D2F4B
:101810009C2FDF91CF911F910C94D00B089580EAFB
:10182000809300011092B90080E28093B80008957F
:10183000FC0180E88083CF010C940F0C843028F4E5
:10184000880F806A8093000108958FEF0895FA0150
:1018500094EA24E89093BC008091BC0087FFFCCF01
:10186000809100018093BB002093BC008091BC005C
:1018700087FFFCCF8091B900883161F784EA8093BB
:10188000BC008091BC0087FFFCCF80910001809359
:10189000BB0084E88093BC008091BC0087FFFCCF34
:1018A0007093BB0084E88093BC008091BC0087FFEC
:1018B000FCCF6093BB0084E88093BC008091BC00A7
:1018C00087FFFCCF8091BC0087FFFCCF84EA809328
:1018D000BC008091BC0087FFFCCF809100018F5F2E
:1018E0008093BB0084E88093BC008091BC0087FF9C
:1018F000FCCF84E88093BC008091BC0087FFFCCFC4
:101900008091BB00808384E98093BC0080E00895CF
:1019100094EA34E89093BC008091BC0087FFFCCF30
:10192000809100018093BB003093BC008091BC008B
:1019300087FFFCCF8091B900883161F784EA8093FA
:10194000BC008091BC0087FFFCCF80910001809398
:10195000BB0084E88093BC008091BC0087FFFCCF73
:101960007093BB0084E88093BC008091BC0087FF2B
:10197000FCCF6093BB0084E88093BC008091BC00E6
:1019800087FFFCCF84EA8093BC008091BC0087FF76
:10199000FCCF809100018F5F8093BB0084E880932F
:1019A000BC008091BC0087FFFCCF84EC211105C0F6
:1019B00084E98093BC0080E00895213009F484E834
:1019C0008093BC009091BC0097FFFCCFFA019091EE
:1019D000BB0091932150AF01E9CF94EA24E89093A2
:1019E000BC008091BC0087FFFCCF809100018093F8
:1019F000BB002093BC008091BC0087FFFCCF80918E
:101A0000B900883161F784EA8093BC008091BC0002
:101A100087FFFCCF809100018093BB0084E8809316
:101A2000BC008091BC0087FFFCCF7093BB0084E8B2
:101A30008093BC008091BC0087FFFCCF6093BB000B
:101A400084E88093BC008091BC0087FFFCCF40936A
:101A5000BB0084E88093BC008091BC0087FFFCCF72
:101A600084E98093BC0080E00895CF93DF93FB016D
:101A7000260F372F311DEC0188818150990B862B61
:101A80009F2B2817390718F09C012F5F3F4F822F9B
:101A90008E1B24EA34E82093BC009091BC0097FF91
:101AA000FCCF909100019093BB003093BC009091CB
:101AB000BC0097FFFCCF9091B900983161F794EA90
:101AC0009093BC009091BC0097FFFCCF90910001D7
:101AD0009093BB0094E89093BC009091BC0097FF5A
:101AE000FCCFF093BB0094E89093BC009091BC00B5
:101AF00097FFFCCFE093BB0094E89093BC009091DB
:101B0000BC0097FFFCCF982F24E8911106C094E900
:101B10009093BC00DF91CF910895DA013D9130930D
:101B2000BB002093BC003091BC0037FFFCCF91502C
:101B3000AD01EBCFDF92EF92FF920F931F93CF9304
:101B4000DF93D82ED92F7B018A01C22F2C2FA80119
:101B5000B7018D2D9D2F0E94350DE80EF11CC81B7D
:101B6000080F111DC111F2CF80E0DF91CF911F91BD
:101B70000F91FF90EF90DF900895FC0180E180834A
:101B800080E2818380E4828380E883838AB1806FEE
:101B90008AB9CF0104960C94670FFC019BB1828136
:101BA000809589238BB9CF0104960C94700FFC01AA
:101BB0009BB18381809589238BB9CF0104960C94C6
:101BC000760F1F93CF93DF93D82FC92F162F0E9424
:101BD000CD0D612F8D2F9C2FDF91CF911F910C94F4
:101BE000D70DFC018BB19281892B8BB9CF01049663
:101BF0000C94700FFC018BB19381892B8BB9CF01B1
:101C000004960C94760F1F93CF93DF93D82FC92F90
:101C1000162F0E94F10D612F8D2F9C2FDF91CF91F8
:101C20001F910C94FA0D04960C947C0F04960C945E
:101C3000810F1F93CF93DF93D82FC92F162F642FB7
:101C40000E94D70D612F8D2F9C2FDF91CF911F9177
:101C50000C94F10D1F93CF93DF93D82FC92F142F1E
:101C60000E94CD0D612F8D2F9C2FDF91CF911F9161
:101C70000C94FA0DCF93DF93EC012496CE010E94D1
:101C80007C0FCE01DF91CF910C94810F1F93CF93E6
:101C9000DF93D82FC92F1AE046E966E98D2F9C2FD4
:101CA0000E94190E2FE784E692E021508040904078
:101CB000E1F700C000008D2F9C2F0E943A0E8FE3A9
:101CC0009CE90197F1F700C000001A9529F7DF9110
:101CD000CF911F9108951F93CF93DF93D82FC92FD2
:101CE0001AE046E966E98D2F9C2F0E942A0E2FEFFD
:101CF00083EF91E0215080409040E1F700C0000068
:101D00008D2F9C2F0E943A0E8FE39CE90197F1F7EB
:101D100000C000001A9529F7DF91CF911F91089517
:101D20001F93CF93DF93D82FC92F142F0E94CD0D6F
:101D3000612F8D2F9C2FDF91CF911F910C94D70D88
:101D4000FC0181E0808382E0818384E0828388E0FB
:101D5000838380E1848381B1807E81B982B1807E7A
:101D600082B9089580B1682381E0611101C080E0EB
:101D70000895FC0180B1908189238115A9F080B17B
:101D800091818923811581F080B192818923811508
:101D900059F080B193818923811531F090B184810C
:101DA000982381E0911101C080E00895FC0185E055
:101DB0008083128211820D9815980895FC0160812C
:101DC00082E692E00E94C90F969587959695879531
:101DD0000895BF92CF92DF92EF92FF920F931F93DD
:101DE000CF93DF93B82E092FD62FC42F411519F1A9
:101DF00010E0C12CD12C76018B2D902F0E94DE0E8D
:101E0000C80ED91EE11CF11C8FE097E20197F1F793
:101E100000C000001F5FC113EFCF2C2F30E040E067
:101E200050E0C701B6010E94441081E0D2171306AA
:101E30001406150608F080E0DF91CF911F910F91F5
:101E4000FF90EF90DF90CF90BF900895CB019B0162
:101E5000215031092F3F310510F08FEF90E00895A8
:101E6000FC0188E0808384E0818384B18C6084B944
:101E70002A9808959C016D52653268F444E06E30F2
:101E800008F043E0E62FF0E0EF5FFE4F6081C9010C
:101E900002960C945A0F0895CF93DF93EC010296AB
:101EA0000E94620F95B188818095892385B9DF9161
:101EB000CF91089516BC67BD82E484BD45BD1092E4
:101EC0006E00089584B58F7B84BD17BC089581EAA8
:101ED0008093800084E080938100109282000895B6
:101EE00070E070938B0060938A00089570E07093A7
:101EF000890060938800089510928B0010928A00E8
:101F0000089510928900109288000895F894E1EBEA
:101F1000F0E010821092B2008CE78093B30082E070
:101F20008093B00094E0908310926102109260025E
:101F30008093700078940895E0E7F0E080818D7FD1
:101F400080831092B10008951092C5008FEC8093A9
:101F5000C4001092C00088E18093C10086E08093A5
:101F6000C20008958091C00085FFFCCF6093C60039
:101F700008958091C00087FFFCCF8091C60008952E
:101F800010927C0086E880937A00089510927A007F
:101F9000089580917C00807E80937C0080917C00FD
:101FA0006770862B80937C0080917A008064809398
:101FB0007A0080917A0084FFFCCF80917A00806162
:101FC00080937A00209178008091790090E0982F9A
:101FD0008827820F911D0895CDB7DEB7C754D10968
:101FE0000FB6F894DEBF0FBECDBFCE01CE960E94D5
:101FF0000805CE01CE960E9481058C01CE01019686
:1020000001151105A1F40E942404CE0101960E943D
:10201000F804CE010E960E940E0C80E090E0C95BA1
:10202000DF4F0FB6F894DEBF0FBECDBF089502306C
:10203000110549F40E941B0ACE0101960E94390B3A
:10204000CE010F96E8CF0E948B02CE0101960E942E
:10205000A803CE0185960E940E0CCE014796DBCFD9
:1020600082E692E00C94C00F82E692E00C94C60FD8
:10207000992778E0880F991F961708F0961B881FFC
:102080007A95C9F780950895A1E21A2EAA1BBB1B69
:10209000FD010DC0AA1FBB1FEE1FFF1FA217B30734
:1020A000E407F50720F0A21BB30BE40BF50B661F4A
:1020B000771F881F991F1A9469F76095709580950E
:1020C00090959B01AC01BD01CF010895EE0FFF1F5C
:1020D0000590F491E02D099410E0CFE3D0E004C026
:1020E000FE010E9466102196C034D107C9F7F8940A
:0220F000FFCF20
:1020F200A08D857E767069635E58534F4A4642FCD6
:10210200EEE0D4C8BDB2A89E958D857E76706963D7
:102112005E58534F4A466F7569006E6F6E202020DD
:10212200202020202020202000526170706F7274C5
:1021320020646520636F6E666F726D697465004519
:102142006D706C6163656D656E74202020202020A7
:10215200636F6E666F726D697465202020646574AA
:1021620061696C002D2D2D2D2D2D2D2D2D2D2D2D1B
:102172002D2D2D2D2D2D2D2D2D2D2D2D2D2D2D2D8D
:102182002D2D2D2D2D2D2D2D2D2D2D2D2D2D2D2D7D
:102192002D2D2D2D2D2D2D2D2D2D2D2D2D2D2D2D6D
:1021A20000706572736F6E6E657300706572736F27
:1021B2006E6E65004C6F63616C20412020202020F0
:1021C2002020202020006F626A657473006F626AAB
:1021D2006574004C6F63616C204220202020202017
:1021E20020202020004C6F63616C2043202020209F
:1021F200202020202020004C6F63616C204420208E
:102202002020202020202020007A6F6E6573206518
:102212006E646F6D6D6167656573007A6F6E6520C0
:10222200656E646F6D6D6167656500436F756C6F98
:102232006972204F554553542020202000436F756A
:102242006C6F69722045535420202020202000000A
:00000001FF
